:100000000C9467020C94B9020C94B9020C94B902D6
:100010000C94B9020C94B9020C94B9020C94B90274
:100020000C94B9020C94B9020C94981E0C94671F9E
:100030000C941A170C94B9020C94B9020C94B902DE
:100040000C94B9020C94B9020C94B9020C94B90244
:100050000C94B9020C9482170C94B9020C94B90256
:100060000C94B9020C94B9020C94B9020C94B90224
:100070000C94B9020C94B9020C94B9020C94B90214
:100080000C94B9020C94B9020C94B9020C94B90204
:100090000C94B9020C94B9020C94B9020C94B902F4
:1000A0000C94B9020C94B9020C94B902DD0CDD0C6D
:1000B0000F0D0F0D5C0D7A0DD20ED20EBC0D510E30
:1000C000620E620EC20ED20ED20ECB0E580F580F19
:1000D0006A0F6A0F610F6A0F6A0F6A0F580F580F85
:1000E000660F6A0F6A0F660FD41FFB1FF320FB1FFA
:1000F000F32047206A20F320C120D02029001400DB
:100100001A000800150017001C0018000C0012004F
:1001100013002A002B0004001600070009000A0043
:100120000B000D000E000F0000002800E100000091
:100130001D001B000600190005001100100036000C
:1001400037003800E000E300E20000002C4100002E
:1001500000002C42000001000100010035021E02D7
:100160001F0220022102220223022402250226026B
:100170002702010001003A003B003C00C05C010086
:1001800001002F0230020100000001000100000008
:100190003D003E003F00C65CC75CC85C33003402D3
:1001A00031022D00010001000100000001000000EB
:1001B00000000100000001000100010035001E00E8
:1001C0001F0020002100220023002400250026001B
:1001D0002700010001004000410042000100010031
:1001E00001002F0030002E0000000100010000007F
:1001F00043004400450001000100010033023400C7
:1002000031002D020100010001000000010000008A
:1002100000000100000001000100010004033000A3
:100220000000160379006D0064006B00340032009A
:100230005F006C0067006500000008034C00470089
:10024000650000000403090409023B00020100A04C
:10025000FA09040000010301010009211101000154
:100260002240000705810308000A09040100010378
:1002700000000009211101000122C00007058203CE
:1002800020000A1201100100000008EDFE0000032A
:10029000000102030105010902A10185020901A172
:1002A000000509190129051500250195057501812C
:1002B0000295017503810105010930093115812578
:1002C0007F95027508810609381581257F9501758E
:1002D000088106050C0A38021581257F95017508ED
:1002E0008106C0C005010980A10185031A81002A89
:1002F0008300160100260300950175108100C005DA
:100300000C0901A10185041A01002A9C02160100B2
:10031000269C02950175108100C005010906A10106
:100320008505050719E029E71500250195087501E0
:1003300081020507190029EF1500250195F07501C7
:10034000810205081901290595057501910295019C
:1003500075039101C005010906A101050719E029EE
:10036000E715002501950875018102950175088141
:10037000010507190029FF150026FF0095067508DD
:10038000810005081901290595057501910295015E
:1003900075039101C00706050401002022232425CE
:1003A0002141542B424C454849444D4F55534542F9
:1003B0005554544F4E3D0041542B424C45484944FE
:1003C0004D4F5553454D4F56453D25642C25642CC6
:1003D00025642C25640041542B424C454849444334
:1003E0004F4E54524F4C4B45593D30782530347860
:1003F0000041542B424C454B4559424F41524443D6
:100400004F44453D253032782D30302D253032781F
:100410002D253032782D253032782D253032782D2B
:10042000253032782D253032780041542B47415009
:10043000474554434F4E4E0041542B4556454E546C
:10044000454E41424C453D3078320041542B455693
:10045000454E54454E41424C453D307831004F4B5E
:10046000004154453D300041542B474150444556CE
:100470004E414D453D796D646B34325F6C6765006C
:1004800041542B424C45484944454E3D310041546E
:100490002B474150494E54455256414C533D313003
:1004A0002C33302C2C0041545A0041542B424C45E3
:1004B000504F5745524C4556454C3D2D3132006109
:1004C000048E0467048004AA04A604009F26112455
:1004D0001FBECFEFDAE0DEBFCDBF04B603FE27C0FC
:1004E0008091D5039091D603A091D703B091D80302
:1004F0008730904BA740B04BD1F41092D5031092A7
:10050000D6031092D7031092D80314BE84B7877F06
:1005100084BF0FB6F894A89580916000886180939D
:100520006000109260000FBEE0E0F8E3099511E072
:10053000A0E0B1E0E2EFF4E502C005900D92A23434
:10054000B107D9F723E0A2E4B1E001C01D92A53DB7
:10055000B207E1F712E0C7E6D2E004C02197FE013E
:100560000E94BC26C636D107C9F70E94E11B0C9435
:10057000772A0C94000081E0089581E008950C949E
:10058000BD021F93CF93DF9300D000D01F92CDB751
:10059000DEB749835A836B832091580189819A8100
:1005A000211112C0662349F00E94A814182F682F49
:1005B00089819A810E94511403C00E947C14182FD3
:1005C00069817A81812F04C00E94A81469817A818F
:1005D0000F900F900F900F900F90DF91CF911F9180
:1005E0000C94A803FC014081518162817381848154
:1005F0000C94C1020E94DA15811102C00E947A1681
:100600000C9465060C94610608950C94040381E033
:1006100008950C940703CF93C82F0E9405038C2FD5
:100620000E940903CF91089508950E94460F0E94E9
:1006300014032FE78AE196E0215080409040E1F7D3
:1006400000C0000087E797E79093010880930008B7
:100650000C94A8170F931F93CF93DF938C010E94E4
:10066000F202EC01B8010E94BF02882309F466C0BF
:10067000B801CE010E942F08882309F45FC0B80199
:10068000CE010E947008882309F458C0F8018281C5
:10069000882319F1CD3D8CE5D807C9F050F4C11578
:1006A000FCE5DF0789F0CC3D8CE5D807B1F480E0AC
:1006B0000FC0CE3DECE5DE0771F0CF3DFCE5DF0776
:1006C00061F40E947A163AC00E94150337C082E096
:1006D0000E94731C33C083E0FBCFC631DC4539F583
:1006E0000E942915982FF8018281209100013091F4
:1006F0000101882379F09A7A81E009F480E08093FF
:100700004201911102C069E201C065E3C9010E9482
:10071000E7160AC080914201811102C069E201C05E
:1007200065E3C9010E94F2160E94771507C0C8014F
:10073000DF91CF911F910F910C94BB0280E0DF916C
:10074000CF911F910F91089580E090E00895089552
:1007500020E3829FC0011124FC012CE0729FE00D78
:10076000F11D1124E60FF11DEE0FFF1FE450FF4FA6
:10077000859194910895880F991FFC01E45EFD4FC7
:10078000859194910895CF93DF930E94A8030E94CE
:100790007D05EC018115904508F041C0C11580E44C
:1007A000D80708F028C1C83ED10510F5C03ED105D4
:1007B00008F09FC1C83AD10578F4C53AD10508F0D0
:1007C000A2C0C130D10509F494C108F445C1C430B8
:1007D000D10508F08EC140C1CF3BD10508F49EC0C1
:1007E000C03CD10508F438C1CE01805C9109F5C048
:1007F000C11590E2D90758F4C11521E0D20708F0DD
:1008000078C1C03FD10508F427C1D06572C1C115B8
:1008100080E3D80708F0E5C0CE019F70DEC0C115A7
:1008200095E5D90708F043C0C11524E5D20708F0C3
:10083000F9C0C11582E5D80708F5C11591E5D907BA
:1008400008F0DCC0CE0174E0969587957A95E1F7C3
:1008500083709C2F937021E030E002C0220F331F81
:100860009A95E2F73C68382BCF70C695C69580E222
:10087000C89FE0011124C22BD32B3BC19E012370E2
:1008800033278C2F86958695C115D34508F0BBC0BC
:10089000C1E0D0E002C0CC0FDD1F2A95E2F720E2D4
:1008A000829FC0011124C82BD92BDC6822C1C1153D
:1008B00029E5D207A0F4C11588E5D80708F0B7C02C
:1008C000C11596E5D90708F0C7C08C2F0E94110604
:1008D0008F71C82FD0E0DC2FCC27D0620AC1C115A0
:1008E0002AE5D20708F4A8C0CE019056811590429F
:1008F00008F0B2C08D2F8F710E941106DD27D062E3
:100900008F71D82BF6C0C53AD10509F4A8C0C63AF4
:10091000D10509F0A7C0C2E8D0E4EBC0C83AD105C0
:1009200009F4A3C0C93AD10509F4A2C0CA3AD10555
:1009300009F4A1C0CB3AD10509F4A0C0CC3AD10545
:1009400009F49FC0CB3BD10509F49EC0CC3BD10537
:1009500009F49DC0CD3AD10509F49CC0C03BD10536
:1009600009F49BC0CE3AD10509F49AC0CF3AD1051B
:1009700009F499C0C13BD10509F498C0C23BD10527
:1009800009F497C0C33BD10509F496C0C43BD10517
:1009900009F495C0C53BD10509F494C0C63BD10507
:1009A00009F493C0C73BD10509F492C0C83BD105F7
:1009B00009F491C0C93BD10509F490C0CD3BD105E4
:1009C00009F48FC0CE3BD10509F48EC0CA3BD105D6
:1009D00009F48DC0C0E0D4E48CC00E94BB03EC01DC
:1009E00088C0CE019927D3FF03C0EC01D86C81C029
:1009F000EC01D06C7EC0DF70D06A7BC0DC2FCC27CE
:100A0000C16FD06A76C0C1E0D0E002C0CC0FDD1F5C
:100A10002A95E2F720E2829FC0011124C82BD92B2E
:100A2000DA6867C0DC2FCC27C46FD06A62C0DC2FC5
:100A3000CC27C06FD06A5DC08C2F8F700E941106CA
:100A400094E0D695C7959A95E1F7CF70D0E0DC2F6A
:100A5000CC27D069C82B4DC0C0E0D0E04AC0C1E867
:100A6000D0E447C0C3E8D0E444C0C2EED4E441C0FF
:100A7000C9EED4E43EC0CAEED4E43BC0C5EBD4E436
:100A800038C0C6EBD4E435C0C3EBD4E432C0C4EB09
:100A9000D4E42FC0C7EBD4E42CC0CCECD4E429C000
:100AA000CDECD4E426C0C3E8D5E423C0CAE8D5E43D
:100AB00020C0C2E9D5E41DC0C4E9D5E41AC0C1E232
:100AC000D6E417C0C3E2D6E414C0C4E2D6E411C031
:100AD000C5E2D6E40EC0C6E2D6E40BC0C7E2D6E457
:100AE00008C0CFE6D4E405C0C0E7D4E402C0CAE23F
:100AF000D6E4CE01DF91CF9108958238910569F156
:100B0000B0F48133910509F46DC048F48932910540
:100B100009F463C08A32910509F469C008958533E8
:100B2000910509F455C089339105B9F00895833EC4
:100B3000910569F138F4803E9105B1F0823E91054E
:100B400009F10895863E9105A9F1873E9105B9F115
:100B5000843E910509F064C023C02091C60320FDA6
:100B60004FC021FD4DC008958091C60380FD44C053
:100B70008091C70380FF44C08091C60384FD42C0BA
:100B800083EE4DC08091C60382FF38C0F5CF8091BF
:100B9000C60382FD33C08091C70380FD31C0ECCF16
:100BA0008091C70381FF32C08091C60384FD2AC0B3
:100BB00087EE35C08091C60383FF26C0F5CF8091B4
:100BC000C60383FD21C08091C70381FD1FC0ECCF08
:100BD0008091C60385FD1CC01DC08091C60385FDA4
:100BE00019C016C08091C60386FD16C017C080913B
:100BF000C60386FD13C010C089E311C082EE0FC08A
:100C000080EE0DC080E00BC086EE09C084EE07C008
:100C100089E205C085E303C08AE201C081E390E078
:100C200008959091C60392FF0DC0282F2871283097
:100C300019F4877F846006C0282F2471243011F4B2
:100C40008B7F886093FF0DC0282F2871283119F4FD
:100C5000877E846106C0282F2471243111F48B7E95
:100C600088612091C70320FF0DC0382F38713830BC
:100C700019F4877F816006C0382F3171313011F44B
:100C80008E7F886021FF0DC0282F2871283119F42C
:100C9000877E816106C0282F2171213111F48E7E5B
:100CA000886194FD877E0895E82FF0E0EE0FFF1F26
:100CB000E854FC4F808191810895089508950C9423
:100CC0005E060C945F060C945E060C946306CF934C
:100CD000DF93A5E1B1E041E251E061E070E08D9188
:100CE000E82FE295EF70F0E021A18F70EB0102C0D8
:100CF000CC0FDD1F8A95E2F7CE019C2F90959223B1
:100D000091A392A1892B82A34A175B0741F7A1E225
:100D1000B1E041E050E08D91E82FE295EF70F0E016
:100D200021A18F70BA0102C0660F771F8A95E2F782
:100D3000CB01962F9095922391A392A1892B82A308
:100D400071E0A532B70739F71092B1031092B003E2
:100D50001092B9031092B8031092B3031092B20329
:100D60001092BB031092BA031092B5031092B40311
:100D70001092BD031092BC031092B7031092B603F9
:100D80001092BF031092BE0384E00E948007DF919F
:100D9000CF910C94FA022F923F924F925F926F92F2
:100DA0007F928F929F92AF92BF92CF92DF92EF92FB
:100DB000FF920F931F93CF93DF9300D000D0CDB756
:100DC000DEB765E171E080E090E0198201E010E0BB
:100DD00038EB432E33E0532EDB012D91BD01E22F82
:100DE000E295EF70F0E031A12F70580101C0AA0C1C
:100DF0002A95EAF7232F2A2921A322A13A2C3094FD
:100E0000232122A3B0E5BA95F1F77801082E02C09C
:100E1000EE0CFF1C0A94E2F737016094709421E213
:100E2000C22E21E0D22E20EB33E03C832B83212CF9
:100E30008B809C80D4012D913C91D6014D916D0108
:100E40004A8342954F7050E0DA0190964C9150E001
:100E5000BA81BF7002C055954795BA95E2F740FD3B
:100E600005C0A9014E295F29D40105C0A901462169
:100E70005721AB81BC814D935C934B815C814E5F6C
:100E80005F4F5C834B83D4014D915C9124173507F0
:100E900011F0222423942B813C814216530641F603
:100EA00021A1322231A222A1A22AA2A23981322971
:100EB000398301968C30910509F08ECF232F44E0C1
:100EC00068EB73E080EB93E00E9481070E940203CD
:100ED00089810F900F900F900F90DF91CF911F910C
:100EE0000F91FF90EF90DF90CF90BF90AF909F90C9
:100EF0008F907F906F905F904F903F902F900895CC
:100F00000895FF920F931F93CF93DF93F82E092F2D
:100F1000162FD72FC42F222349F081E0809345015B
:100F20000E944C17909344018093430180914501A6
:100F30008823D9F080914301909144010E94581771
:100F4000069798F0EF2DF02FA12FBD2F80E090E0B5
:100F50004C2F50E08417950734F4219131912D9353
:100F60003D930196F7CF10924501DF91CF911F91EC
:100F70000F91FF9008950F931F93CF93DF93C62F88
:100F8000D42F122FFC0182818823C9F0609348017D
:100F90000E944C17909347018093460180E28C0F8A
:100FA000883008F057C0C77081E001C0880FCA952B
:100FB000EAF7DF91CF911F910F910C949D0C8091D6
:100FC0004801681330C080914601909147010E940A
:100FD00058178436910538F500E20D0FCD17B9F09A
:100FE00080E28C0F883040F4C77081E001C0880F28
:100FF000CA95EAF70E94A40C083028F581E09D2FDD
:10100000977001C0880F9A95EAF70E949D0C812F76
:101010000E948A0C0830F0F4D77081E001C0880F7C
:10102000DA95EAF70AC080E28C0F883098F4C7702E
:1010300081E001C0880FCA95EAF7DF91CF911F9137
:101040000F910C94A40C812FDF91CF911F910F91E0
:101050000C948A0CDF91CF911F910F9108959C0100
:10106000CB01243F4CE53407F9F078F4283DFCE54A
:101070003F07B9F0293D4CE5340711F1273D3C45C8
:1010800031F526E241EE61EE1EC0263FFCE53F074A
:1010900099F070F0273F3C45D1F427E245EE66EE2B
:1010A00012C027E245EE0EC026E241EE60EE0BC014
:1010B00027E245EE64EE07C026E241EE62EE03C091
:1010C00028E241E065EE0E94BB0780E00895FC0144
:1010D0008281882319F010924801089581E00895D3
:1010E000CF93DF93EC01FB018281882309F41FC1B8
:1010F000C230FCE5DF0708F41BC1C6319CE5D90707
:1011000038F09E012B5F3C452930310508F010C1B5
:101110000E94ED159093C7038093C603C031ECE5A0
:10112000DE0709F4C3C008F041C0C8308CE5D80719
:1011300009F49AC0F0F4C430ECE5DE0709F487C086
:1011400068F4C2308CE5D80709F477C0C330DC45B9
:1011500009F0E3C08091C603826076C0C630ECE53A
:10116000DE0709F46EC008F07BC08091C60388607A
:101170006BC0CC308CE5D80709F485C068F4CA3060
:10118000ECE5DE0709F474C008F079C00E94460F50
:101190008091C603806858C0CE308CE5D80709F42A
:1011A00076C008F07FC08091C6038BC0CC3FECE5D1
:1011B000DE0709F44FC018F5C3318CE5D80709F4F0
:1011C0007DC078F4C131ECE5DE0709F473C0C231AB
:1011D000DC4509F0A2C00E94460F8091C6038F77BC
:1011E00033C0C5318CE5D80709F472C008F486C055
:1011F000CB3FDC4509F091C08091C7033EC0C115CB
:10120000FDE5DF0709F45FC058F4CE3F9CE5D90740
:1012100009F444C008F43FC08091C70382602DC028
:10122000C230FDE5DF0709F475C008F45DC0C330C6
:10123000DD4509F072C080E06EC08091C603816018
:1012400003C08091C60380618093C60366C080910D
:10125000C60311C08091C70382608093C7035DC03D
:101260008091C6038062F0CF8091C6038064ECCF8A
:101270008091C60388608460E7CF8160EECF809163
:10128000C6038E7FE1CF8091C6038D7FDDCF809135
:10129000C603877FD9CF8091C70318C08091C70349
:1012A0008D7FDBCF8091C6038F7ECECF8091C6032A
:1012B0008F7DCACF8091C6038F7BC6CF8091C60336
:1012C000877F8B7FC1CF8091C7038D7F8E7FC5CFF6
:1012D0008091C60382FB222720F991E0922790FBA0
:1012E00082F990FB83F9B0CF8091C703982F909536
:1012F00091708E7F892B90FB81F9AFCF0E94460FB2
:101300008091C60387FB222720F991E0922790FB6A
:1013100087F99ACF81E00E947C168091C603909154
:10132000C7030E94FE150E94460F80E001C081E0C5
:10133000DF91CF91089590934E0180934D010895D0
:10134000E0914D01F0914E01309721F00190F08134
:10135000E02D099480E00895E0914D01F0914E0157
:10136000309799F020911201222359F02091C60361
:1013700027FF07C0DC012C9111962C93119725E0D3
:101380002C930280F381E02D09940895E0914D01A2
:10139000F0914E01309739F022E0DC012C9304806B
:1013A000F581E02D0994089520914B0130914C0175
:1013B0002817390771F090934C0180934B01E0910D
:1013C0004D01F0914E01309721F00680F781E02D1C
:1013D000099408952091490130914A01281739074D
:1013E00071F090934A0180934901E0914D01F09191
:1013F0004E01309721F00084F185E02D0994089585
:1014000085B7806885BF85B7806885BF08950895D2
:101410000C94070A0C94080A0C94070A0C94070A07
:101420000E94000A0E940C0A0C940A0A81E00895A6
:101430000E9443170E9467060E94B9170C940E0A77
:101440007F928F929F92AF92BF92CF92DF92EF9254
:10145000FF920F931F93CF93DF93CDB7DEB72A97F9
:101460000FB6F894DEBF0FBECDBF0E94CB060E9420
:10147000160A811111C08FEF89838A831B820E9413
:101480004C178160782F9D838C8349815A816B81B1
:101490008D810E94D00A4FC040E5A42E41E0B42EB9
:1014A00000E010E0702E802F0E9454066C01F501C0
:1014B000819091905F01882699268114910431F4DE
:1014C0000F5F1F4F0430110569F7D5CF8091DC0104
:1014D00081FD0E945D0680E0EE24E394F12C9401EE
:1014E0002E213F21232B09F18E837F82CE20DF2006
:1014F00081E0CD2809F480E088870E944C17816044
:10150000782F9A8789874E815F8168858A850E94B6
:10151000D00A000F111FF801E05BFE4F808191811E
:10152000E826F926F182E08206C08F5FEE0CFF1CF0
:101530008C30A9F6C5CF0E944B190E94A00990914A
:101540004F018917C9F00E94A00980934F012A9684
:101550000FB6F894DEBF0FBECDBFDF91CF911F91C4
:101560000F91FF90EF90DF90CF90BF90AF909F9042
:101570008F907F900C940B032A960FB6F894DEBFE1
:101580000FBECDBFDF91CF911F910F91FF90EF90D4
:10159000DF90CF90BF90AF909F908F907F900895F5
:1015A000CF93DF93CDB7DEB72B970FB6F894DEBF9E
:1015B0000FBECDBF4F83588769877A878B87DE013F
:1015C000119686E0FD0111928A95E9F785E0FE010A
:1015D000379601900D928A95E1F749815A816B8186
:1015E0007C818D819E810E9416122B960FB6F894F5
:1015F000DEBF0FBECDBFDF91CF910895FC0180818A
:1016000091810E94EA140895882309F41AC182384E
:10161000C1F40E94A00981FD14C169E38091000119
:10162000909101010E94E7160E9477152FEF80E745
:1016300092E0215080409040E1F700C0000069E353
:1016400019C08338F9F40E94A00980FDFAC063E54F
:1016500080910001909101010E94E7160E94771588
:101660002FEF80E792E0215080409040E1F700C0EA
:10167000000063E580910001909101010E94F21643
:101680000C9477158438C1F40E94A00982FDD9C05A
:1016900067E480910001909101010E94E7160E9489
:1016A00077152FEF80E792E0215080409040E1F7DE
:1016B00000C0000067E4DECF9CEF980F913A40F441
:1016C000682F80910001909101010E94E716D8CF08
:1016D00090E2980F983050F4877091E001C0990F14
:1016E0008A95EAF7892F0E942C15CACF9BE5980F9F
:1016F000933070F4853A29F0863A31F083E890E02F
:1017000005C081E890E002C082E890E00C94D40922
:1017100098E5980F973108F08EC0883A09F445C0D3
:10172000893A09F445C08A3A09F445C08B3A09F46C
:1017300045C08C3A09F445C08B3B09F445C08C3B4D
:1017400009F445C08D3A09F445C0803B09F445C011
:101750008E3A09F445C08F3A09F445C0813B09F43B
:1017600045C0823B09F445C0833B09F445C0843B36
:1017700009F445C0853B09F445C0863B09F445C0E2
:10178000873B09F445C0883B09F445C0893B09F40F
:1017900045C08D3B09F445C08E3B09F445C08A3BEA
:1017A00009F445C080E090E044C082EE90E041C082
:1017B00089EE90E03EC08AEE90E03BC085EB90E081
:1017C00038C086EB90E035C083EB90E032C084EB0C
:1017D00090E02FC087EB90E02CC08CEC90E029C00B
:1017E0008DEC90E026C083E891E023C08AE891E088
:1017F00020C082E991E01DC084E991E01AC081E235
:1018000092E017C083E292E014C084E292E011C03B
:1018100085E292E00EC086E292E00BC087E292E0A1
:1018200008C08FE690E005C080E790E002C08AE241
:1018300092E00C94EA09803F20F00E9453180C9427
:1018400040190895882309F464C0823879F40E940D
:10185000A00981FF5EC069E38091000190910101C0
:101860000E94E7160E94771569E310C08338B1F42F
:101870000E94A00980FF4DC063E580910001909116
:1018800001010E94E7160E94771563E5809100012F
:10189000909101010E94F2160C947715843879F426
:1018A0000E94A00982FF35C067E4809100019091F9
:1018B00001010E94E7160E94771567E4E7CF9CEFCD
:1018C000980F913A10F4682FE1CF90E2980F98307A
:1018D00050F4877091E001C0990F8A95EAF7892F3B
:1018E0000E943215D9CF9BE5980F933020F480E009
:1018F00090E00C94D40998E5980F973120F480E09B
:1019000090E00C94EA09803F20F00E94BB180C94F0
:1019100040190895CF93C82F0E94040BC93349F48E
:101920002FEF83EF91E0215080409040E1F700C01D
:1019300000008C2FCF910C94220C882321F00E9460
:101940002C150C9477150895882321F00E943215E8
:101950000C9477150895CF92DF92EF92FF920F9338
:101960001F93CF93DF937C01062FC72FFC011581B6
:1019700012951F70D281D1110E9449150E94221523
:10198000882379F0DD2369F080E2800F883048F009
:1019900082E00E94C1150E94221591E0D82ED9261E
:1019A00001C0D12CCC2EC2948FE0C8228C2D90E0A7
:1019B000FC01EA5AFF4F0C94BC268C2F807FCF701D
:1019C000882311F0C295C07FDD2399F0CC2309F460
:1019D000C4C180E2800F883010F0011104C08C2F48
:1019E0000E942C1503C08C2F0E943C150E94771575
:1019F000B4C1802F0E94220CCC2309F4D3C180E211
:101A0000800F883010F0011104C08C2F0E94321515
:101A100003C08C2F0E9442150E947715C3C18C2FE2
:101A2000807FCF70803211F0C295C07F002319F003
:101A30000130C9F022C0DD2371F0112341F01130D3
:101A400031F40E945C158C2B0E946415ABC10E947E
:101A50005C158C2B1DC0112319F0113009F4A2C1A3
:101A60000E946D1525C0DD2321F0163008F09AC1C3
:101A70000EC0153008F096C11BC0DD2361F01123A4
:101A800031F0F701858180FF68C18F7085838C2FCD
:101A90000E949D0C87C1112359F0093309F06EC1D2
:101AA000FFEF23EF81E0F15020408040E1F764C177
:101AB0008C2F0E94A40C76C18C2F869586958370FE
:101AC00019F0813061F06EC1DD2321F0802F9C2F51
:101AD000937002C080E090E00E94D4096BC1DD23C6
:101AE00021F0802F9C2F937002C080E090E00E9434
:101AF000EA0960C1DD23F9F0053F51F0063F71F0BE
:101B0000043FA9F48091C0039091C10381600BC090
:101B10008091C0039091C103826005C08091C00391
:101B20009091C10384609093C1038093C003802F80
:101B30000E9453181EC0053F51F0063F71F0043F4C
:101B4000A9F48091C0039091C1038E7F0BC0809156
:101B5000C0039091C1038D7F05C08091C003909117
:101B6000C1038B7F9093C1038093C003802F0E9499
:101B7000BB180E9440191EC18C2F837009F045C00C
:101B8000D11114C1402F429546954770440F440F20
:101B9000602F6F70862F90E0A0E0B0E0042E04C0AC
:101BA000880F991FAA1FBB1F0A94D2F704FF10C009
:101BB0000FE010E020E030E004C0000F111F221FF2
:101BC000331F4A95D2F7009510952095309503C0A4
:101BD00000E010E09801C695C695C370BC01CD0128
:101BE000602B712B822B932BC23049F058F4C130FB
:101BF00019F00E946713DAC00E945513D7C00E94E3
:101C00007913D4C00E945313D1C0DD2319F08C2F57
:101C1000817001C08695882309F4C8C0402F429581
:101C200046954770440F440F602F6F70862F90E0E9
:101C3000A0E0B0E0042E04C0880F991FAA1FBB1FAC
:101C40000A94D2F704FF10C00FE010E020E030E06B
:101C500004C0000F111F221F331F4A95D2F70095B1
:101C600010952095309503C000E010E09801C695CE
:101C7000C695C370BC01CD01602B712B822B932BB9
:101C8000C23049F058F4C13019F00E942C148EC0B3
:101C90000E941A148BC00E943E1488C00E948D13AB
:101CA00085C0CF70DD2339F08C2F0E94B313802FB5
:101CB0000E949D0C7BC0802F0E94A40C8C2F0E9440
:101CC000D41374C0023F01F128F4003F41F0013FFA
:101CD000A1F03FC0033FF9F0043F39F13AC0DD23E2
:101CE00041F0153008F05EC08C2F8F710E94F913FF
:101CF00059C0163008F056C0F7CFDD2339F08C2FCD
:101D00008F710E94B3134EC0DD23C9F38C2F8F71E6
:101D10000E94D41347C0DD2329F08C2F8F710E94BD
:101D20009E1340C00E9499133DC0DD2349F0CF713E
:101D30008C2F0E94B31363E08C2F0E94AC1532C02D
:101D400081E00E94C115123068F182E00E94C11545
:101D500029C0DD2331F0112391F2802F0E94040B62
:101D600021C0112399F2093349F49FEFE3EFF1E029
:101D70009150E040F040E1F700C00000802F0E9449
:101D8000220C10C04C2F4F70602FC7010E94A4037B
:101D90000E94C4120FC04C2F4F70602FC7010E94C9
:101DA000A70308C088EF8C0D843020F40E94A0099E
:101DB0000E940B03DD20C9F00E941E1580FD15C096
:101DC000F70112820E9418150E94B313C7010E94E6
:101DD000FE0E0E941815DF91CF911F910F91FF9079
:101DE000EF90DF90CF900C94D413DF91CF911F919F
:101DF0000F91FF90EF90DF90CF9008950F931F9376
:101E0000CF93DF93EC01988189812B813C81232B37
:101E100031F08F3F31F481E09F3F19F403C081E03E
:101E200001C080E080FD13C0CE010E942A038823F8
:101E300071F0688179818A810E94F5148C010E9479
:101E400050140E944113B801CE010E94AB0CDF91E7
:101E5000CF911F910F9108950E9449150E94591525
:101E60000E9477150E94E6190E94401980E090E0D8
:101E70000E94D40980E090E00C94EA09809100016E
:101E8000909101010E94FD160C942C0F0E943915AF
:101E90000C943E0FE92FE295EF704E2F50E0FA01BF
:101EA0003297EE30F105B0F4EA59FF4F0C94BC269E
:101EB000803F91F018F4883E68F40EC0843F51F4DE
:101EC0000BC0883E48F0813F29F406C093FB882769
:101ED00080F9089580E0089581E008950E94EA1451
:101EE0000E944A0F0895CF93DF9300D000D01F9235
:101EF000CDB7DEB70F900F900F900F900F90DF913E
:101F0000CF910895CF93DF9300D000D000D0CDB70C
:101F1000DEB726960FB6F894DEBF0FBECDBFDF91B9
:101F2000CF9108951F93CF93DF93C091590116E08D
:101F300080915A01C81799F0D0E01C9FF0011D9FB5
:101F4000F00D1124E55AFE4F408151816281738169
:101F5000848195810E94820F2196C770E9CFDF911D
:101F6000CF911F91089540918B0150918C01609108
:101F70008D0170918E0180918F01909190010C9450
:101F8000820FCF938091900182958F7009F05FC08E
:101F900080918D01882309F45AC080915901B09134
:101FA0005A0170918B01A0918C0140918E0150914A
:101FB0008F0191E07F3F09F090E0692FC6E08B1719
:101FC00009F445C04115510521F0AF3F21F020E053
:101FD00003C021E001C0262F90E020FD35C0C89F3E
:101FE000F001C99FF00D1124E55AFE4F21812A13FB
:101FF0002BC02081271328C02281211125C02381D5
:1020000034812417350710F421503109241B350B76
:1020100024363105C8F4209190012F70206120935F
:10202000900126E0289FF001299FF00D1124E05A2D
:10203000FE4F80818F70806180838BE891E00E94E9
:10204000FE0ECF910C94920F01968770B8CFCF916E
:102050000895AF92BF92CF92DF92EF92FF920F93CB
:102060001F93CF93DF93CDB7DEB761970FB6F89488
:10207000DEBF0FBECDBF8C0185E0F801DE011D96ED
:1020800001900D928A95E1F7D8014C9111965C91DF
:1020900011971296EC9030918B0160918C01809198
:1020A0008E0190918F01009731F06F3F31F421E064
:1020B0003F3F19F403C021E001C020E0B22FB1700E
:1020C000BB2E20FD60C1F801C380D480A0908D019B
:1020D000AA2009F4EEC020919001C816D90628F074
:1020E000D601A81BB90BCD0104C0809590958C0D2D
:1020F0009D1DFF24F3948436910580F0F12C207F00
:1021000009F09CC07C2DD98AC88A6E2D89890E94CD
:10211000730F8BE891E00E94FE0E2DC1822F807F0D
:1021200009F054C0561314C0431312C0FE2CE11022
:102130000FC02F702061209390010E94B30F8BE895
:1021400091E00E94FE0E80919001F80185835CC1B0
:10215000CD2831F05F3F31F481E04F3F19F403C0E7
:1021600081E001C080E080FD03C081E08E2502C0D7
:1021700080E090E0F82FF170FF2E80FF1CC080916E
:10218000590120915A0136E0821709F41AC190E0F2
:10219000389FF001399FF00D1124E55AFE4F6181FF
:1021A000561306C06081461303C06281E61203C065
:1021B00001968770E9CFFE2CEE2009F425C18091AD
:1021C0009001816080939001F12C1EC1561309C0CB
:1021D000431307C0E11005C080919001F801858389
:1021E000A4C04D875E878D859E850E946E0F8823D3
:1021F00079F1EE2069F120919001822F82958F7004
:1022000090E0029774F080918B0190918C019887F7
:102210008F831986DB86CA862C87CE0107960E949B
:10222000FE0E86E0F801ABE8B1E001900D928A95D0
:10223000E1F70E94C10F0E94B30F0DC0561771F055
:102240004D875E878D859E850E946E0F81111AC015
:10225000C8010E94FE0EFF24F394D6C04313F0CFB2
:10226000E110EECF80919001F8018583C8010E94B2
:10227000FE0E86E0EBE8F1E0DF011D928A95E9F7BA
:10228000FA2CC2C0EE2021F320919001822F82957A
:102290008F7090E002972CF280918B0190918C01CD
:1022A0009A8389831B82DD82CC822E83CE010196A4
:1022B000B6CFC816D90628F0F601E81BF90BCF01F6
:1022C00004C0809590958C0D9D1D8436910548F035
:1022D000F12C7C2DD98AC88A6E2D89890E94730FB2
:1022E0004AC0FE2CEE2009F4B3CF561333C043137B
:1022F00031C02091900120FD24C0822F82958F70E3
:10230000482F50E041155105E1F0D80115962C9366
:1023100015974F30510549F08F5F982F9295907F18
:10232000822F8F70892B15968C93C8010E94FE0E08
:1023300086E0F801ABE8B1E001900D928A95E1F7F3
:102340003DC086E0F801ABE8B1E001900D928A95BE
:10235000E1F75AC04D875E878D859E850E946E0F7E
:1023600081115FCF80919001816080939001C801BD
:102370000E94FE0E49C0EBE8F1E086E0DF011D920D
:102380008A95E9F71BC0EE2009F462CF4D875E877E
:102390008D859E850E946E0FF82E882309F458CFF4
:1023A00086E0F801ABE8B1E001900D928A95E1F783
:1023B0008BE891E00E94FE0A0E94C10F0E94B30FB9
:1023C00023C04D875E878D859E850E94EA14292F44
:1023D00022952F70223028F49F7039F0811105C0AA
:1023E0000BC0243028F49F7049F4805E883020F0C0
:1023F000C8010E94FE0EBF2CFB2C06C0D80115960A
:102400009C91907F91F7F8CF8F2D61960FB6F8943D
:10241000DEBF0FBECDBFDF91CF911F910F91FF9017
:10242000EF90DF90CF90BF90AF9008951F93CF9320
:10243000DF93CDB7DEB72C970FB6F894DEBF0FBE93
:10244000CDBF4F83588769877A878B879C87CE015A
:1024500007960E9429108823D1F09F8188852A85BC
:102460003B85232B31F08F3F31F481E09F3F19F4FE
:1024700003C081E001C080E080FD47C04F815885E6
:1024800069857A858B859C850E94820F3EC086E097
:10249000FE013796DE01119601900D928A95E1F7C3
:1024A000FF81E8856A857B856115710531F0EF3F15
:1024B00031F481E0FF3F19F403C081E001C080E006
:1024C00080FD23C020915A0130E0C9010196877038
:1024D00099274091590150E084179507F1F1F9834C
:1024E000EA837D836C8396E0929FD001939FB00D29
:1024F0001124A55ABE4FFE01319601900D929A9576
:10250000E1F780935A010E94920F16E080915901E1
:1025100090915A01891771F1189FC0011124855AB1
:102520009E4F0E942910882329F1E09159011E9F96
:10253000F0011124E55AFE4F40815181628173817F
:10254000848195810E94820F8091590190E00196CB
:102550008770992780935901D9CF0E94460F109216
:102560005A0110925901EBE8F1E086E0DF011D927B
:102570008A95E9F72C960FB6F894DEBF0FBECDBF53
:10258000DF91CF911F910895EF92FF920F931F93C8
:10259000CF93DF938C01892B09F46CC0F12CEE24CE
:1025A000E394E8012196F8018491843740F4843063
:1025B00008F051C0813081F0823019F15BC085375D
:1025C00009F444C0A8F19CE7980F903708F052C076
:1025D0008F770E94220C41C00E5F1F4FFE01849135
:1025E00090E2980F983050F48770FE2D01C0FF0FD5
:1025F0008A95EAF78F2F0E944C1514C00E94040B95
:102600002DC00E5F1F4FFE01849190E2980F98300D
:1026100060F48770FE2D01C0FF0F8A95EAF78F2FB7
:102620000E9452150E94771519C00E94220C16C0F4
:102630000E5F1F4FFE01C491CC2381F08FEC97E019
:102640000197F1F700C00000C150F6CF0E5F1F4F99
:10265000FE01F49003C00E94040B8E018F2D88238D
:1026600009F49FCFEFECF7E03197F1F700C00000DD
:102670008150F5CFDF91CF911F910F91FF90EF9097
:102680000895089508950C9442130C9443130E94E6
:1026900045136093B3017093B4018093B501909397
:1026A000B6010C942C0F0C9447130F931F930091B9
:1026B000B3011091B4012091B5013091B601602BA6
:1026C000712B822B932B1F910F910C9447130F9317
:1026D0001F930091B3011091B4012091B501309185
:1026E000B60160237123822393231F910F910C94D1
:1026F00047130F931F930091B3011091B4012091E0
:10270000B5013091B60160277127822793271F9169
:102710000F910C9447130C9442130E948B136093F7
:10272000AF017093B0018093B1019093B2010C940A
:102730002C0F60E070E0CB010C948D130F931F936E
:1027400041E050E060E070E08A019B0104C0000FAE
:10275000111F221F331F8A95D2F7C901B8011F919B
:102760000F910C948D130F931F9341E050E060E0A4
:1027700070E004C0440F551F661F771F8A95D2F77B
:102780008091AF019091B001A091B101B091B201DF
:102790008A019B01082B192B2A2B3B2BC901B8015D
:1027A0001F910F910C948D130F931F9341E050E0F4
:1027B00060E070E004C0440F551F661F771F8A95C4
:1027C000D2F740955095609570958091AF019091AA
:1027D000B001A091B101B091B2018A019B0108231F
:1027E00019232A233B23C901B8011F910F910C948F
:1027F0008D130F931F9341E050E060E070E004C040
:10280000440F551F661F771F8A95D2F78091AF013D
:102810009091B001A091B101B091B2018A019B01E8
:10282000082719272A273B27C901B8011F910F91B3
:102830000C948D130F931F930091AF011091B00171
:102840002091B1013091B201602B712B822B932B1F
:102850001F910F910C948D130F931F930091AF0153
:102860001091B0012091B1013091B2016023712328
:10287000822393231F910F910C948D130F931F9319
:102880000091AF011091B0012091B1013091B201DE
:1028900060277127822793271F910F910C948D1326
:1028A00008952CE0929F800D1124E82FE695E6957F
:1028B000E695877051E001C0550F8A95EAF785E0EB
:1028C000E89FF0011124EF56FE4F20E030E070E069
:1028D0004081CB01022E02C0969587950A94E2F7BB
:1028E0008170819584278523842781932F5F3F4FB3
:1028F0002530310569F708952CE0929F800D112451
:10290000682F669566956695982F977085E0689F05
:10291000B001112440E050E080E0FB01E40FF51F1E
:10292000EF56FE4F208130E0092E02C036952795E4
:102930000A94E2F721703327042E01C0220F0A9473
:10294000EAF7822B4F5F5F4F4530510531F708950D
:10295000BF92CF92DF92EF92FF920F931F93CF938C
:10296000DF938C01C090AF01D090B001E090B10135
:10297000F090B2018091B3019091B401A091B501A2
:10298000B091B601C82AD92AEA2AFB2ACFE1D0E0C1
:10299000D701C6010C2E04C0B695A79597958795CB
:1029A0000A94D2F780FD04C0219790F7B12C07C09C
:1029B000BC2EB8018C2F0E94C3030197A9F38B2D65
:1029C000DF91CF911F910F91FF90EF90DF90CF900B
:1029D000BF900895CF93DF93EC010E94A814BE012D
:1029E0000E94C303DF91CF9108951F93CF93DF938C
:1029F000EB0190915801992321F0CB010E94EA1438
:102A000013C0882349F0CB010E94A814182F682F07
:102A1000CE010E94511404C0CB010E947C14182FD7
:102A2000BE01812F0E94C303DF91CF911F910895B2
:102A30008091B70185958595859508958091B70119
:102A4000877008959091B701977081E009F480E054
:102A500008958091DB0108959091DB01892B80938B
:102A6000DB01089580959091DB0189238093DB0140
:102A700008951092DB0108959091DA01892B8093DB
:102A8000DA01089580959091DA0189238093DA0123
:102A900008951092DA0108959091D901892B8093BD
:102AA000D901089580959091D90189238093D90106
:102AB00008951092D90108958091B801089508955C
:102AC0000C945F150C9460159091B801981721F043
:102AD0008093B8010C94621508958091B801882301
:102AE00029F01092B80180E00C9462150895E091ED
:102AF0000001F09101018091DB018083E0910001F0
:102B0000F091010190818091DA01892B8083E0911D
:102B10000001F091010190818091D901892B80837E
:102B20008091B801882381F0E0910001F0910101CA
:102B30009081892B808380910001909101010E94F6
:102B4000811681110E946D15809100019091010103
:102B50000C94AC090C945F1598E0899F90011124A6
:102B6000262B2093B7010E94B3138091B70185955E
:102B7000859585950C94AA151092B70180E00C9468
:102B8000AA152091B701809582238093B701982FD1
:102B9000977079F430E0482F082E000C550B24175D
:102BA000350739F08595859585950E94D4130C9449
:102BB000BC15089580E090E00E94062A21E08C3E3A
:102BC0009E4F09F020E0822F089582E090E00C945F
:102BD000FE2983E090E00C94FE29CF9384E090E0FE
:102BE0000E94FE29C82F81E290E00E94FE292C2F2E
:102BF00030E0A901582BCA01CF910895CF93C92F76
:102C0000682F84E090E00E940C2A6C2F81E290E013
:102C1000CF910C940C2AAB01BC018FE090E00C9496
:102C20001E2AAB01BC0183E190E00C941E2A60E0F7
:102C300070E0CB010C94111660E070E0CB010E94B3
:102C40000B160C9417166CEE7EEF80E090E00E945D
:102C50002A2A60E082E090E00E940C2A60E083E093
:102C600090E00E940C2A1092B3011092B4011092CD
:102C7000B5011092B60160E084E090E00E940C2A59
:102C800060E081E290E00E940C2A60E085E090E044
:102C90000E940C2A60E086E090E00E940C2A6FEF10
:102CA00087E090E00E940C2A40E050E0BA0188E002
:102CB00090E00E941E2A60E08DE090E00E940C2AC5
:102CC00040E050E0BA0188E190E00E941E2A60E0F6
:102CD00087E190E00E940C2A40E050E0BA018CE1CC
:102CE00090E00E941E2A60E080E290E00E940C2AA0
:102CF0000C941C160C942316682F8EE090E00C9414
:102D00000C2AFC01329680911201882331F08091C7
:102D1000C60387FF02C09EE101C096E080E09150AB
:102D200028F021912223D9F38F5FF9CF08959C01D8
:102D3000FC0132969FEF80E04191461789F09F3F5A
:102D400019F4411101C0982F8F5F8630A9F79F3F7A
:102D500039F0F901E90FF11D97FDFA9562830895A5
:102D600008959C012A5F3F4FFC014281461301C038
:102D70001282019682179307B9F70895262F269598
:102D8000269526952E3168F4FC01E20FF11D67703F
:102D900021E030E001C0220F6A95EAF78281282BFA
:102DA00022830895262F2695269526952E3170F498
:102DB000FC01E20FF11D677021E030E001C0220F3D
:102DC0006A95EAF72095828128232283089520912D
:102DD0001201222329F02091C60327FD0C94BE1670
:102DE0000C94971620911201222329F02091C603FA
:102DF00027FD0C94D2160C94B11620911201FC01FF
:102E00003296222331F08091C60387FF02C08EE103
:102E100001C086E0DF011D928A95E9F708950895C3
:102E20000C940F170E94460F0E94A0090E940B03EA
:102E30000C9410171F920F920FB60F9211248F93BC
:102E40009F93AF93BF938091DD01811113C0809157
:102E5000C2039091C303A091C403B091C5034196EE
:102E6000A11DB11D8093C2039093C303A093C4031B
:102E7000B093C503BF91AF919F918F910F900FBEFB
:102E80000F901F90189582E084BD93E095BD9DE75B
:102E900097BD80936E0008952FB7F8948091C20378
:102EA0009091C303A091C403B091C5032FBF0895AF
:102EB000CF92DF92EF92FF920F931F932FB7F89468
:102EC0004091C2035091C3036091C4037091C50344
:102ED0002FBF6A017B01EE24FF248C0120E030E04B
:102EE000C016D106E206F30610F4415051099A01CA
:102EF000281B390BC9011F910F91FF90EF90DF90B4
:102F0000CF90089578941F920F920FB60F921124CC
:102F10008F939F93AF93BF938091C2039091C3030C
:102F2000A091C403B091C5030196A11DB11D80936A
:102F3000C2039093C303A093C403B093C503BF918E
:102F4000AF919F918F910F900FBE0F901F9018958A
:102F500087E797E790930108809300089AE088E15B
:102F60000FB6F894A895809360000FBE9093600010
:102F7000FFCF0E94DA15811102C00E947A160E94CA
:102F8000E5158093DC010E94ED159093C7038093B3
:102F9000C6030E94E915682F70E080E090E00C9471
:102FA00053138091E10180FF0BC06091050185E022
:102FB000689FB001112475956795759567952BC02D
:102FC00081FF09C06091050185E0689FB00111246F
:102FD0007595679520C082FF07C06091050185E067
:102FE000689FB001112417C09091E0019923D1F09E
:102FF00060910401961788F72091050185E0289FCC
:1030000090011124929FA001939F500D112470E014
:10301000CA010E94A8266038710540F46115710547
:1030200019F406C065E070E0862F08958FE70895D3
:1030300081E008958091E10180FF08C06091030163
:1030400070E0759567957595679521C081FF06C0FD
:103050006091030170E07595679519C082FF04C007
:103060006091030170E010C09091E001992399F004
:10307000609102019617A0F780910301899FC0011A
:10308000112470E00E94A8266038710540F4611593
:10309000710519F406C061E070E0862F08958FE78E
:1030A000089581E00895803F21F40E94D117819511
:1030B00004C0813F29F40E94D1178093E50108954F
:1030C000823F21F40E94D117819504C0833F29F4E7
:1030D0000E94D1178093E4010895893F19F40E945A
:1030E0001A1805C08A3F31F40E941A1881958093FE
:1030F000E60108958B3F21F40E941A18819504C0BF
:103100008C3F29F40E941A188093E7010895843FA8
:1031100021F48091E301816017C0853F21F4809103
:10312000E301826011C0863F21F48091E301846055
:103130000BC0873F21F48091E301886005C0883F80
:1031400031F48091E30180618093E30108958D3F24
:1031500021F48091E10181600BC08E3F21F48091C8
:10316000E101826005C08F3F29F48091E101846014
:103170008093E1010895803F39F48091E50187FF54
:103180006CC01092E50169C0813F29F48091E5018E
:103190001816BCF362C09091E401823F29F497FFB6
:1031A0005CC01092E40159C0833F19F41916CCF3A6
:1031B00054C0893F41F48091E60118160CF04DC0CF
:1031C0001092E6014AC08A3F29F48091E60187FF08
:1031D00044C0F6CF8B3F39F48091E70187FF3DC0B3
:1031E0001092E7013AC08C3F29F48091E70118164C
:1031F000BCF333C0843F21F48091E3018E7F17C07C
:10320000853F21F48091E3018D7F11C0863F21F439
:103210008091E3018B7F0BC0873F21F48091E30114
:10322000877F05C0883F31F48091E3018F7E8093D2
:10323000E30113C08D3F21F48091E1018E7F0BC02B
:103240008E3F21F48091E1018D7F05C08F3F29F4ED
:103250008091E1018B7F8093E1018091E4018111F4
:103260000EC08091E50181110AC08091E6018111B3
:1032700006C08091E701811102C01092E00108951B
:1032800082EE91E00E94C6090E944C179093DF01E4
:103290008093DE0108951F93CF93DF938091DE0129
:1032A0009091DF010E945817AC019091E0019923A1
:1032B00021F02091060130E006C0209107018AE04C
:1032C000289F900111244217530708F47BC0809176
:1032D000E401C091E501D091E6011091E70181116F
:1032E00007C0C1116BC0D11169C0111167C06AC09C
:1032F0009F3F19F09F5F9093E001181624F40E94FD
:10330000D1178093E4018091E40187FF05C00E94FA
:10331000D11781958093E4011C1624F40E94D117E3
:103320008093E5018091E50187FF05C00E94D117D8
:1033300081958093E5013091E4013323E1F0209100
:10334000E5012223C1F045EB3403C0011124992388
:1033500019F09093E40103C081E08093E40135EB20
:103360002303C0011124992319F09093E50103C0B0
:1033700081E08093E5011D1624F40E941A188093C1
:10338000E6018091E60187FF05C00E941A18819529
:103390008093E601111624F40E941A188093E70125
:1033A0008091E70187FF05C00E941A1881958093DC
:1033B000E701DF91CF911F910C9440199F3F09F0D5
:1033C00099CFAACFDF91CF911F910895E2EEF1E05E
:1033D00086E0DF011D928A95E9F71092E0011092D4
:1033E000E1010895809108020895EF92FF921F93E2
:1033F000CF93DF9300D01F92CDB7DEB77C010E9440
:10340000851C182F8DEF810F823040F460E070E052
:10341000C7010E944E26143019F026C0123021F543
:1034200084E08983FB82EA8282E08093E9008FEF67
:103430009091E800815095FD06C09AE69A95F1F7C3
:1034400000C08111F5CF8091E80085FF0DC040E0FC
:1034500050E063E070E0CE0101960E948C1C8091E8
:10346000E8008E778093E8000F900F900F90DF9127
:10347000CF911F91FF90EF900895CF93DF9300D0ED
:103480001F92CDB7DEB72091CC03243031F523E075
:103490002983805891099B838A8382E08093E90085
:1034A0008FEF9091E800815095FD06C09AE69A95BD
:1034B000F1F700C08111F5CF8091E80085FF0DC0C4
:1034C00040E050E063E070E0CE0101960E948C1C69
:1034D0008091E8008E778093E8000F900F900F9016
:1034E000DF91CF9108950F931F93CF93DF93EC015A
:1034F0000E94851C182F8DEF810F823050F40981B6
:103500002D814C816B818A810E947426143019F0C0
:1035100021C01230F9F482E08093E9008FEF90919E
:10352000E800815095FD06C09AE69A95F1F700C033
:103530008111F5CF8091E80085FF0CC040E050E09C
:1035400066E070E0CE010E948C1C8091E8008E77CE
:103550008093E800DF91CF911F910F9108951F9301
:10356000CF93DF93EC010E94851C182F8DEF810F04
:10357000823050F446E0BE016E5F7F4F88810E942A
:10358000ED25143019F03DC01230D9F580911201AB
:10359000882339F08091C60387FF03C060E282E090
:1035A00002C068E081E08093E9008FEF9091E8002D
:1035B000815095FD06C09AE69A95F1F700C08111F9
:1035C000F5CF8091E80085FF1CC080911201811128
:1035D00005C040E050E068E070E003C070E040E00B
:1035E00050E0CE010E948C1C8091E8008E77809381
:1035F000E80080E2FE01A8EEB1E001900D928A950C
:10360000E1F7DF91CF911F9108958091CB03811154
:1036100009C00E941D1E0E947A1E8091E2008460F3
:103620008093E20008951092CB03089508950895C1
:103630000C94121742E061EC81E00E94961D42E278
:1036400061EC82E00C94961D8091CE03833009F4E6
:1036500060C030F4813071F0823009F499C008956F
:103660008A3009F485C08B3009F46BC0893009F0C9
:10367000A7C020C08091CD03813A09F0A1C08091FC
:10368000E800877F8093E8008091D1039091D20376
:10369000892B21F460E288EE91E003C060E080E0D5
:1036A00090E070E00E94D71C8091E8008B778093B7
:1036B000E80008958091CD03813209F081C08091A6
:1036C000D1039091D203029708F07AC08091E8006C
:1036D000877F8093E8008091E80082FD05C080919B
:1036E000CC038111F8CF6CC02091F3008091F200DF
:1036F00090E0922B029729F48091F1008B7F81302A
:1037000021F48091F100809308028091E8008B778A
:1037100053C08091CD03813A09F052C08091D1030A
:103720009091D203892B09F04BC08091E800877FEC
:103730008093E8008091E80080FFFCCF8091120127
:1037400036C08091CD038132D9F58091D10390911B
:10375000D203892BA9F58091E800877F8093E80048
:103760000E94CB1D8091CF03809312010C94460FD1
:103770008091CD03813221F58091E800877F80938D
:10378000E8000E94CB1D8091D00380930902089528
:103790008091CD03813AA1F48091E800877F8093E6
:1037A000E8008091E80080FFFCCF809109028093BF
:1037B000F1008091E8008E778093E8000C94CB1D97
:1037C000089584B7877F84BF0FB6F894A895809139
:1037D0006000886180936000109260000FBE90E0EE
:1037E00080E80FB6F89480936100909361000FBE5B
:1037F0000E94100A0E941D1E0E947A1E8091E20003
:1038000084608093E20078940E940C210E94180A40
:1038100088E091E00E949B090E94200A0E943625C0
:10382000FBCF0C94131C292F332723303105C9F00B
:1038300060F42130310581F02230310509F04AC0B1
:103840008BE390E028E432E049C02132310511F1E8
:103850002232310579F13EC082E190E023E832E086
:103860003DC099278130910561F040F0823091058B
:1038700059F0039779F5ECE1F2E008C0E4E4F2E0F6
:1038800005C0EAE3F2E002C0E2E2F2E0849190E0F7
:103890009F0124C06115710541F061307105D1F4BB
:1038A00089E090E023E732E019C089E090E02AE562
:1038B00032E014C06115710541F06130710551F4B9
:1038C00080EC90E025E932E009C080E490E025E555
:1038D00033E004C080E090E020E030E0FA01318382
:1038E000208308950895CF93C82F0E94721CC0931F
:1038F0001301CF9108958091CC03843021F00E9470
:10390000C82483E0089582E0089580911301811115
:1039100002C00C947B1C0895CF92DF92EF92FF922D
:103920000F931F93CF93DF93EC018B017A010E94D9
:10393000EA1D811133C0E114F10439F0F7018081EF
:103940009181081B190BC80FD91FC12CD12C01154F
:10395000110519F18091E80085FD16C08091E800FD
:103960008E778093E800E114F10449F0F70180813B
:103970009181C80ED91ED182C08285E00FC00E94FD
:10398000EA1D882321F30AC089918093F100015038
:103990001109FFEFCF1ADF0ADACF80E0DF91CF9174
:1039A0001F910F91FF90EF90DF90CF90089520919D
:1039B000D3033091D4032617370748F061157105FA
:1039C00039F42091E8002E772093E80001C0B90176
:1039D000FC0120E06115710579F18091CC03882309
:1039E000F1F18530F1F18091E80083FD3CC08091D8
:1039F000E80082FD2EC08091E80080FFEBCF20918F
:103A0000F3008091F20090E0922B6115710551F066
:103A10008830910538F421912093F10061507109AB
:103A20000196F3CF21E0089709F020E08091E800AB
:103A30008E778093E800CECF2111CFCF0AC080913E
:103A4000CC03882361F0853061F08091E80083FD2C
:103A50000AC08091E80082FFF2CF80E0089582E002
:103A6000089583E0089581E008952091D303309173
:103A7000D4032617370748F06115710539F42091F2
:103A8000E8002E772093E80001C0B901FC0120E096
:103A90006115710591F18091CC03882309F440C030
:103AA000853009F43FC08091E80083FD3DC08091DE
:103AB000E80082FD2FC08091E80080FFE9CF2091CF
:103AC000F3008091F20090E0922B6115710559F09E
:103AD0008830910540F424912093F1003196615093
:103AE00071090196F2CF21E0089709F020E080915A
:103AF000E8008E778093E800CBCF2111CCCF0AC0AD
:103B00008091CC03882361F0853061F08091E800DA
:103B100083FD0AC08091E80082FFF2CF80E0089523
:103B200082E0089583E0089581E00895982F97300A
:103B300068F59093E900981739F07091EC002091A6
:103B4000ED005091F00003C0242F762F50E021FDAE
:103B500002C09F5FECCF3091EB003E7F3093EB00D3
:103B60003091ED003D7F3093ED003091EB003160FE
:103B70003093EB007093EC002093ED005093F00035
:103B80002091EE0027FDE5CF80E008958F708093AF
:103B9000E90081E008958091CD0387FF11C08091F5
:103BA000E80082FD05C08091CC038111F8CF11C0DF
:103BB0008091E8008B770BC08091CC03882349F07B
:103BC0008091E80080FFF8CF8091E8008E778093A5
:103BD000E80008952091E4003091E50095E64091D9
:103BE000EC00842F817040FF23C08091E80080FDAD
:103BF0001DC08091CC03882399F0853099F0809185
:103C0000EB0085FD11C04091E4005091E5002417C0
:103C1000350729F3915011F09A01E1CF84E008951E
:103C200082E0089583E0089581E0089580E008959A
:103C30004091E80042FFDDCF08950E948B1E0E9454
:103C4000931EE0EEF0E0808181608083E8EDF0E09B
:103C500080818F77808319BCA7EDB0E08C918E7F37
:103C60008C9380818F7E80831092CB0308950F9375
:103C70001F93CF93DF930E948B1E0E94931EC8ED6B
:103C8000D0E088818F778883888180688883888165
:103C90008F7D888319BC1092CC031092C8031092B8
:103CA000CA031092C90300EE10E0F80180818B7FF7
:103CB000808388818160888342E060E080E00E94A8
:103CC000961DE1EEF0E080818E7F8083E2EEF0E0F1
:103CD000808181608083808188608083F801808119
:103CE0008E7F8083888180618883DF91CF911F914F
:103CF0000F910895E8EDF0E080818F7E8083E7EDFD
:103D0000F0E080818160808384E082BF81E08093E5
:103D1000CB030C94371EE8EDF0E080818E7F80832A
:103D20001092E20008951092DA001092E1000895D6
:103D30001F920F920FB60F9211242F933F934F9320
:103D40005F936F937F938F939F93AF93BF93EF9303
:103D5000FF938091E10082FF0BC08091E20082FF1F
:103D600007C08091E1008B7F8093E1000E940B21CE
:103D70008091DA0080FF1DC08091D80080FF19C0BB
:103D80008091DA008E7F8093DA008091D90019BC8F
:103D900080FF0BC082E089BD09B400FEFDCF81E049
:103DA0008093CC030E94051B04C01092CC030E9498
:103DB000131B8091E10080FF19C08091E20080FF19
:103DC00015C08091E2008E7F8093E2008091E20036
:103DD00080618093E2008091D80080628093D80057
:103DE00019BC85E08093CC030E94171B8091E100F1
:103DF00084FF2FC08091E20084FF2BC019BC82E0B9
:103E000089BD09B400FEFDCF8091D8008F7D8093DD
:103E1000D8008091E1008F7E8093E1008091E200E4
:103E20008F7E8093E2008091E20081608093E200C7
:103E30008091C803882311F084E007C08091E300DB
:103E400087FD02C081E001C083E08093CC030E9423
:103E5000181B8091E10083FF29C08091E20083FF5D
:103E600025C08091E100877F8093E10082E080930C
:103E7000CC031092C8038091E1008E7F8093E10013
:103E80008091E2008E7F8093E2008091E200806169
:103E90008093E20042E060E080E00E94961D809105
:103EA000F00088608093F0000E94161BFF91EF9154
:103EB000BF91AF919F918F917F916F915F914F9142
:103EC0003F912F910F900FBE0F901F9018951F924A
:103ED0000F920FB60F9211242F933F934F935F933E
:103EE0006F937F938F939F93AF93BF93CF93DF9302
:103EF000EF93FF93C091E900CF708091EC00D82F31
:103F0000D17080FDD0E81092E9008091F000877FA9
:103F10008093F00078940E94AB1F1092E90080918A
:103F2000F00088608093F000CD2BCF70C093E90043
:103F3000FF91EF91DF91CF91BF91AF919F918F91C1
:103F40007F916F915F914F913F912F910F900FBE95
:103F50000F901F9018951F93CF93DF93CDB7DEB7C7
:103F6000AA970FB6F894DEBF0FBECDBFEDECF3E01D
:103F70008091F100819323E0E53DF207C9F70E94AB
:103F8000241B8091E80083FF2EC18091CD03909186
:103F9000CE03492F50E04A30510508F024C1FA0100
:103FA000EC58FF4F0C94BC26803821F0823809F081
:103FB0001AC108C08091C9039091CA03992389F05E
:103FC00082600FC08091D1038F70873008F00BC1E1
:103FD0008093E9008091EB0085FB882780F910929F
:103FE000E9009091E800977F9093E8008093F100BA
:103FF0001092F100D1C0282F2D7F09F0F4C0882342
:1040000019F0823061F0EFC08091CF03813009F068
:10401000EAC0933009F080E08093CA032EC08091FB
:10402000CF0381112AC08091D1038F702FEF280F09
:10403000263008F0D8C08093E9002091EB0020FFE3
:104040001CC0933021F48091EB00806214C09091E9
:10405000EB0090619093EB0021E030E0A90102C0F9
:10406000440F551F8A95E2F74093EA001092EA0048
:104070008091EB0088608093EB001092E9008091C2
:10408000E800877F8093E8000E94CB1DACC08111BF
:10409000AAC01091CF031F778091E3008078812B15
:1040A0008093E3008091E800877F8093E8000E947E
:1040B000CB1D8091E80080FFFCCF8091E3008068F9
:1040C0008093E300111102C082E001C083E080937D
:1040D000CC0389C08058823008F085C08091CF031E
:1040E0009091D0038C3D53E0950779F583E08A8366
:1040F0008AE289834FB7F894DE01139620E03EE010
:1041000051E2E32FF0E050935700E49120FF03C009
:10411000E295EF703F5FEF708E2F90E0EA3010F085
:10412000C79601C0C0968D939D932F5F243149F7A8
:104130004FBF8091E800877F8093E8006AE270E0DB
:10414000CE0101960E94D71C16C06091D1037091D8
:10415000D203AE014F5F5F4F0E94111CBC01892B3F
:1041600009F441C09091E800977F9093E80089811D
:104170009A810E94351D8091E8008B778093E8003A
:1041800032C0803881F58091E800877F8093E80015
:104190008091C8038093F1008091E8008E7772CF00
:1041A000811121C08091CF039091D003992702976C
:1041B000D4F48091E800877F8093E8008091CF035A
:1041C0008093C8030E94CB1D8091C803811106C053
:1041D0008091E30087FD02C081E001C084E080930C
:1041E000CC030E941A1B8091E80083FF0AC08091D3
:1041F000E800877F8093E8008091EB0080628093E5
:10420000EB00AA960FB6F894DEBF0FBECDBFDF91CC
:10421000CF911F9108950895CF938091CC03882367
:10422000A1F0C091E900CF709091EC00892F8170CE
:1042300090FD80E8C82B1092E9008091E80083FD92
:104240000E94AB1FCF70C093E900CF91089595E80D
:1042500090937A00982F9072906890937B008F7162
:1042600090911401892B80937C0080917A00806466
:1042700080937A0080917A0086FDFCCF809178004F
:104280002091790090E0922B08958C3038F4E82F3B
:10429000F0E0EB56FC4F84910C94272180E090E0F5
:1042A0000895662371F0FC019C01260F311DE21771
:1042B000F30738F41EBC0DB407FEFDCF8EB5819315
:1042C000F6CF0895EF92FF920F931F93CF93DF9352
:1042D000EC017B010E944C178C0166990CC082E0B6
:1042E0008A95F1F700C0C8010E9458178E159F05E6
:1042F000A0F380E030C080910A028CBD80910B0257
:104300008DBD2C981EBC00000DB407FEFDCF8EB5F0
:1043100088838E5F823070F42C9A82E48A95F1F75C
:1043200000C02C98C8010E9458178E159F0550F3A5
:1043300080E010C063E0CE0101960E9451216B81A4
:104340006F77862F90E0419724F4CE0104960E9467
:10435000512181E02C9ADF91CF911F910F91FF9015
:10436000EF900895EF92FF920F931F93CF93DF93F7
:10437000EC018B0180910A028CBD80910B028DBDF6
:104380002C980E944C177C0188818EBD00000DB4D2
:1043900007FEFDCF8EB58E3FB9F42C9A22E42A9504
:1043A000F1F700C02C98C7010E9458178017910799
:1043B00058F380E001C081E02C9ADF91CF911F91EA
:1043C0000F91FF90EF900895FE0131968B818F77CA
:1043D0008D5F9F01280F311DC901E817F90758F7B4
:1043E00021912EBD0DB407FEFDCFF7CF1F93CF93C4
:1043F000DF93CDB7DEB764970FB6F894DEBF0FBE7C
:10440000CDBFE091110290911002E91709F43FC06D
:10441000182F669B21C066E970E0CE0101960E94CC
:1044200062218823A1F18C8187FD0DC020911102AA
:1044300080911002281759F130E02F5F3F4F217013
:10444000332720931102112311F1909111028091D1
:10445000100298131AC01BC0F0E0EE0FFF1FE45FBC
:10446000FD4F808191810E9458178D32914078F0E4
:104470008091110290911002891749F090E0019605
:10448000817099278093110202C06699C4CF649607
:104490000FB6F894DEBF0FBECDBFDF91CF911F9155
:1044A00008956F927F928F929F92AF92BF92CF9218
:1044B000DF92EF92FF920F931F93CF93DF93CDB7CD
:1044C000DEB7A8970FB6F894DEBF0FBECDBF7C0154
:1044D0008B016A014901FC0101900020E9F7CF013D
:1044E00001975C01672B61F090911002809111029D
:1044F000981721F081E00E94F621F6CFF801108292
:1045000040E1742E5AE0652EA5014E195F09888D91
:1045100041315105DCF07D8A1E8A6F8A8078806186
:104520008068888FF701DE015996872D01900D92E2
:104530008A95E1F7B401CE0145960E94B221882305
:1045400009F464C0F0E1EF0EF11CDECF80E18D8B49
:104550001E8A8AE08F8B842F8F77888F5527B7012B
:10456000CE0149960E941627B401CE0145960E94BD
:10457000B221F82E882309F449C001151105E1F490
:104580000E944C178C018091100290E09C012F5FDB
:104590003F4F2170332740911102421709F45AC04E
:1045A000880F991FFC01E45FFD4F11830083209366
:1045B00010020E944C1752C05801AC0CBD1C78016F
:1045C0006CE271E0CE0101960E9462218823F1F035
:1045D0008981803219F0F801108218C08C818F77A0
:1045E000CA2CCE188C1508F4C82ECC2051F0D12C32
:1045F000A601BE016B5F7F4FC7010E941627EC0C1E
:10460000FD1C8C8187FDDCCFF70106C0F12C26C094
:104610007F0180818A3039F41082F70131970E17BB
:104620001F07B0F302C08D30B9F36AE070E0C80133
:104630000E942A27009719F08C010F5F1F4F6EE52B
:1046400074E0C8010E94FD2621E0892B09F020E0DA
:10465000F22E04C080E00E94F62195CF8F2DA896FF
:104660000FB6F894DEBF0FBECDBFDF91CF911F9183
:104670000F91FF90EF90DF90CF90BF90AF909F9001
:104680008F907F906F9008958F929F92AF92BF927C
:10469000CF92DF92EF92FF920F931F93CF93DF930E
:1046A000CDB7DEB77C015B014A01CDB6DEB60E9414
:1046B0000D2701962DB73EB7281B390B0FB6F8947E
:1046C0003EBF0FBE2DBF0DB71EB70F5F1F4FB70107
:1046D000C8010E94062726E930E0A401B501C801FF
:1046E0000E9451220FB6F894DEBE0FBECDBEDF9100
:1046F000CF911F910F91FF90EF90DF90CF90BF90DF
:10470000AF909F908F9008958F929F92AF92BF929B
:10471000CF92DF92EF92FF920F931F93CF93DF938D
:10472000CDB7DEB7CA57D1090FB6F894DEBF0FBEBA
:10473000CDBF7C019091100280911102981301C1AC
:104740009091A3038091A203981709F4FAC08AE01C
:10475000899F900111242E5E3D4FF901DE01AF5873
:10476000BF4F01900D928A95E1F7F901C080158144
:104770000681D780908481840E944C179093AF0368
:104780008093AE03F1E0CF1679F1CF1628F022E046
:10479000C21609F452C0BAC061EF73E0CE010196AF
:1047A0005C010E9406271F928F921F929F921F9278
:1047B000DF921F920F931F921F93E6968FADE6979D
:1047C0001F928F93E5968FADE5971F928F93BF92BF
:1047D000AF921F9280E38F938E010F5B1F4F1F9349
:1047E0000F930E943D271BC066ED73E08E010F5FA3
:1047F0001F4FC8010E940627E6968FADE6978F935C
:10480000E5968FADE5978F931F930F931F9280E3EB
:104810008F93005C1F4F1F930F930E943D279701BA
:1048200040E050E060E070E0C8010E9451220FB605
:10483000F894DEBF0FBECDBF67C067EB73E0CE015B
:1048400001965C010E940627802F002E000C990B18
:104850009F930F93812F012E000C990B9F931F9311
:10486000E6968FADE697282F082E000C330B3F936A
:104870008F93E5968FADE597282F082E000C330B0C
:104880003F938F93BF92AF921F9280E38F938E01DD
:104890000F5B1F4F1F930F930E943D27970140E02E
:1048A00050E060E070E0C8010E9451220FB6F89419
:1048B000DEBF0FBECDBF8823C1F161EA73E0C8013E
:1048C0000E940627D0FE05C065E271E0C8010E9483
:1048D0001F27D1FE05C067E271E0C8010E941F27B3
:1048E000D2FE03C069E271E004C0D11005C06BE2E2
:1048F00071E0C8010E941F27970140E050E060E08E
:1049000070E0C8010E945122882379F08091A303AE
:104910009091A2038917A9F090E0019668E270E0F7
:104920000E94A8268093A3030CC0FFE729EA33E086
:10493000F15020403040E1F700C0000081E00E94CB
:10494000F621C658DF4F0FB6F894DEBF0FBECDBFBD
:10495000DF91CF911F910F91FF90EF90DF90CF905B
:10496000BF90AF909F908F90089520E5FC01208329
:1049700021E021839FB7F894289A209A8CB5806112
:104980008CBD8CB580648CBD219A229A9FBF0895FE
:104990008091A40308950F931F93CF93DF93CDB716
:1049A000DEB7C258D1090FB6F894DEBF0FBECDBF37
:1049B0008091A503811122C01092A6031092A40336
:1049C0006E987698249A2C9A8AE092E00E94B524F8
:1049D000549A5C9A5C988FE19EE40197F1F700C0CD
:1049E00000005C9A9FEF29E688E1915020408040CA
:1049F000E1F700C0000081E08093A5031092A603B8
:104A00000FEB14E042E050E0B801CE018F579F4F0A
:104A10000E94F42640E850E0BE016F5F7F4FCF5701
:104A2000DF4F88819981C158D0400E944423882358
:104A300079F00E5F1F4F94E00B3C190719F781E0E6
:104A40008093A6030E944C179093AF038093AE030C
:104A50008091A603CE57DF4F0FB6F894DEBF0FBE8E
:104A6000CDBFDF91CF911F910F910895CF93DF9329
:104A7000CDB7DEB7E0970FB6F894DEBF0FBECDBF5F
:104A80008091A603811105C00E94CB24882309F4DC
:104A90006DC081E00E94F6218AE090E00E948423AC
:104AA0008091AE039091AF030E945817893E9340C6
:104AB000C8F18091A703811117C040E350E0BE0107
:104AC0006F5F7F4F8BE494E00E944423882349F07A
:104AD00040E350E0BE016F5F7F4F88E394E00E94A7
:104AE000442381E08093A7030E944C179093AF0367
:104AF0008093AE0340E350E0BE016F5F7F4F8AE2D8
:104B000094E00E944423882369F0CE0101960E941C
:104B1000D62621E0892B09F420E08091A40382139A
:104B20002093A4038091A8039091A9030E94581791
:104B300081319742D8F09091100280911102981320
:104B400015C00E944C179093A9038093A80387E097
:104B50000E944521092E000CAA0BBB0B8093AA03CF
:104B60009093AB03A093AC03B093AD03E0960FB664
:104B7000F894DEBF0FBECDBFDF91CF9108950F93A4
:104B80001F93CF93DF93EC01FB018C0100571E4F65
:104B9000D8012C9130E0C901019668E270E00E94D2
:104BA000A826DE01AF56BE4F9C91981781F09AE07F
:104BB000929FD001939FB00D1124AC0FBD1F0190A7
:104BC0000D929A95E1F7F801808381E001C080E0C1
:104BD000DF91CF911F910F910895FF920F931F9333
:104BE000CF93DF93CDB7DEB72A970FB6F894DEBF29
:104BF0000FBECDBF8B01F42E19828C830E944C17FF
:104C00009B838A83F80180818D83FF2011F081814D
:104C100001C080E08E83F1E0FF1518F4F801828175
:104C200001C080E08F83F2E0FF1518F4F801838162
:104C300001C080E08887F3E0FF1518F4F801848153
:104C400001C080E08987F4E0FF1518F4F801858140
:104C500001C080E08A87BE016F5F7F4F82E192E0F2
:104C60000E94BF25811105C086E990E00E9484233F
:104C7000C9CFF6E0FF1528F48AEFF80E0A5F1F4F40
:104C8000C1CF81E02A960FB6F894DEBF0FBECDBF2C
:104C9000DF91CF911F910F91FF900895CF93DF93F4
:104CA000CDB7DEB72A970FB6F894DEBF0FBECDBFE3
:104CB00021E029839D838C83BE016F5F7F4F82E15A
:104CC00092E00E94BF25811105C086E990E00E9414
:104CD0008423F2CF81E02A960FB6F894DEBF0FBE90
:104CE000CDBFDF91CF9108950F93CF93DF93CDB7D1
:104CF000DEB72A970FB6F894DEBF0FBECDBF92E0A5
:104D000099838C836D834E832F830887BE016F5FE9
:104D10007F4F82E192E00E94BF25811105C086E9A4
:104D200090E00E948423F2CF81E02A960FB6F89497
:104D3000DEBF0FBECDBFDF91CF910F9108951092CE
:104D4000A2031092A303ECE0F2E01482158208950E
:104D500097FB072E16F4009407D077FD09D00E9428
:104D6000C22607FC05D03EF4909581959F4F08958B
:104D7000709561957F4F0895EE0FFF1F0590F49198
:104D8000E02D0994AA1BBB1B51E107C0AA1FBB1F42
:104D9000A617B70710F0A61BB70B881F991F5A95C7
:104DA000A9F780959095BC01CD010895FC01882755
:104DB0009927E89421912032E9F3293010F02E3020
:104DC000C8F32B3241F02D3239F4689404C00E94AC
:104DD0003527820F911D219120532A30C0F31EF4F4
:104DE000909581959F4F0895FB01DC0102C00590CD
:104DF0000D9241505040D8F70895FB01DC018D9190
:104E0000059080190110D9F3990B0895FB01DC017D
:104E100005900D920020E1F70895FC010590002017
:104E2000E9F7809590958E0F9F1F0895FB01DC0197
:104E300002C001900D9241505040D8F70895FB01F7
:104E4000DC010D900020E9F7119701900D920020F0
:104E5000E1F70895FC0181E090E00190061609F465
:104E6000CF010020D1F7019708957AE0979F902D08
:104E7000879F802D910D11240895AEE0B0E0E3E40A
:104E8000F7E20C944E2A0D891E898F89988D26E0B1
:104E90002C831A83098397FF02C080E090E8019772
:104EA0009E838D83AE01455E5F4F698D7A8DCE0105
:104EB00001960E946D274D815E8157FD0AC02F81AA
:104EC0003885421753070CF49A01F801E20FF31FDB
:104ED00010822E96E4E00C946A2AABE0B0E0E3E79F
:104EE000F7E20C94402A6C017B018A01FC011782D5
:104EF0001682838181FFCCC1CE0101963C01F6016F
:104F00009381F70193FD859193FF81917F01882320
:104F100009F4BAC1853239F493FD859193FF8191EB
:104F20007F01853229F4B60190E00E946429E7CF21
:104F3000912C212C312CFFE1F315D8F08B3279F034
:104F400038F4803279F08332A1F4232D20611DC022
:104F50008D3261F0803369F4232D216016C0832DDA
:104F60008260382EE32DE4603E2E2AC0F32DF860D7
:104F70001DC037FC2DC020ED280F2A3040F08E32A6
:104F8000B9F436FC81C1232D2064322E19C036FEBF
:104F900006C08AE0989E200D1124922E11C0EAE0EE
:104FA0002E9E200D1124222EF32DF0623F2E08C0DC
:104FB0008C3621F4832D8068382E02C0883641F467
:104FC000F70193FD859193FF81917F018111B3CF0B
:104FD000982F9F7D9554933028F40C5F1F4F9FE3CB
:104FE00099830DC0833631F0833771F0833509F032
:104FF00059C021C0F801808189830E5F1F4F88242A
:105000008394912C530113C02801F2E04F0E511CE0
:10501000F801A080B18036FE03C0692D70E002C0A7
:105020006FEF7FEFC5010E9459294C018201F32DDA
:10503000FF773F2E16C0280122E0420E511CF801D6
:10504000A080B18036FE03C0692D70E002C06FEF12
:105050007FEFC5010E944E294C01F32DF0683F2ED1
:10506000820133FC1BC0822D90E088169906B0F4B3
:10507000B60180E290E00E9464292A94F4CFF50101
:1050800037FC859137FE81915F01B60190E00E9467
:10509000642921102A9421E0821A91088114910434
:1050A00071F7E8C0843611F0893641F5F80137FE12
:1050B00007C060817181828193810C5F1F4F08C09E
:1050C00060817181072E000C880B990B0E5F1F4FBA
:1050D000F32DFF763F2E97FF09C090958095709530
:1050E00061957F4F8F4F9F4FF0683F2E2AE030E051
:1050F000A3010E94A029882E861845C0853731F467
:10510000232D2F7EB22E2AE030E025C0932D997FEB
:10511000B92E8F36C1F018F4883579F0B5C08037D4
:1051200019F0883721F0B0C0E92FE061BE2EB4FE3F
:105130000DC0FB2DF460BF2E09C034FE0AC0292F1C
:105140002660B22E06C028E030E005C020E130E045
:1051500002C020E132E0F801B7FE07C06081718132
:10516000828193810C5F1F4F06C06081718180E056
:1051700090E00E5F1F4FA3010E94A029882E861881
:10518000FB2DFF773F2E36FE0DC0232D2E7FA22E46
:10519000891458F434FE0BC032FC09C0832D8E7E76
:1051A000A82E05C0B82CA32C03C0B82C01C0B92C64
:1051B000A4FE0FC0FE01E80DF11D8081803321F4B3
:1051C0009A2D997EA92E09C0A2FE06C0B394B3946D
:1051D00004C08A2D867809F0B394A3FC11C0A0FE08
:1051E00006C0B21488F4280C922C9B180EC0B2147E
:1051F00060F4B60180E290E00E946429B394F7CF96
:10520000B21418F42B1802C0982C212CA4FE10C044
:10521000B60180E390E00E946429A2FE17C0A1FCC1
:1052200003C088E790E002C088E590E0B6010CC0BA
:105230008A2D867859F0A1FE02C08BE201C080E27F
:10524000A7FC8DE2B60190E00E946429891438F42D
:10525000B60180E390E00E9464299A94F7CF8A9483
:10526000F301E80DF11D8081B60190E00E946429F0
:105270008110F5CF222009F442CEB60180E290E001
:105280000E9464292A94F6CFF6018681978102C094
:105290008FEF9FEF2B96E2E10C945C2AFC010590C6
:1052A000615070400110D8F7809590958E0F9F1F28
:1052B0000895FC016150704001900110D8F780956D
:1052C00090958E0F9F1F08950F931F93CF93DF9399
:1052D000FB01238121FD03C08FEF9FEF2CC022FF34
:1052E00016C046815781248135814217530744F403
:1052F000A081B1819D012F5F3F4F318320838C932B
:10530000268137812F5F3F4F3783268314C08B015F
:10531000EC01FB010084F185E02D0995892BE1F674
:10532000D80116968D919C911797019617969C938C
:105330008E931697CE01DF91CF911F910F91089513
:10534000FA01AA27283051F1203181F1E8946F93B6
:105350006E7F6E5F7F4F8F4F9F4FAF4FB1E03ED05C
:10536000B4E03CD0670F781F891F9A1FA11D680FFA
:10537000791F8A1F911DA11D6A0F711D811D911D2D
:10538000A11D20D009F468943F912AE0269F1124A2
:105390003019305D3193DEF6CF010895462F477006
:1053A000405D4193B3E00FD0C9F7F6CF462F4F7061
:1053B000405D4A3318F0495D31FD4052419302D0BF
:1053C000A9F7EACFB4E0A695979587957795679565
:1053D000BA95C9F700976105710508959B01AC0165
:1053E0000A2E06945795479537952795BA95C9F78C
:1053F000620F731F841F951FA01D0895F999FECF9A
:1054000092BD81BDF89A992780B50895A8E1B0E0D2
:1054100042E050E00C94322A262FF999FECF92BD3B
:1054200081BDF89A019700B4021639F01FBA20BD69
:105430000FB6F894FA9AF99A0FBE08950396272F9B
:105440000E940D2A0E940C2A252F0E940D2A242F2B
:105450000C940D2A0196272F0E940D2A0C940C2AD9
:10546000DC01CB01FC01F999FECF06C0F2BDE1BD24
:10547000F89A319600B40D9241505040B8F7089513
:105480002F923F924F925F926F927F928F929F9254
:10549000AF92BF92CF92DF92EF92FF920F931F9342
:1054A000CF93DF93CDB7DEB7CA1BDB0B0FB6F894F3
:1054B000DEBF0FBECDBF09942A88398848885F8433
:1054C0006E847D848C849B84AA84B984C884DF80A4
:1054D000EE80FD800C811B81AA81B981CE0FD11D88
:1054E0000FB6F894DEBF0FBECDBFED010895F8945E
:0254F000FFCFEC
:1054F200B9012808140A321EF219AF1A731A3D1A9A
:10550200F519010440F7F6F5F4F1F09735363796C0
:1055120067909192934C0052004D00300041542B01
:10552200424C45504F5745524C4556454C3D2564DB
:02553200000077
:00000001FF
